{
  "_format": "hh-sol-artifact-1",
  "contractName": "BINToken",
  "sourceName": "contracts/BINToken.sol",
  "abi": [
    {
      "inputs": [],
      "stateMutability": "nonpayable",
      "type": "constructor"
    },
    {
      "inputs": [
        {
          "internalType": "address",
          "name": "spender",
          "type": "address"
        },
        {
          "internalType": "uint256",
          "name": "allowance",
          "type": "uint256"
        },
        {
          "internalType": "uint256",
          "name": "needed",
          "type": "uint256"
        }
      ],
      "name": "ERC20InsufficientAllowance",
      "type": "error"
    },
    {
      "inputs": [
        {
          "internalType": "address",
          "name": "sender",
          "type": "address"
        },
        {
          "internalType": "uint256",
          "name": "balance",
          "type": "uint256"
        },
        {
          "internalType": "uint256",
          "name": "needed",
          "type": "uint256"
        }
      ],
      "name": "ERC20InsufficientBalance",
      "type": "error"
    },
    {
      "inputs": [
        {
          "internalType": "address",
          "name": "approver",
          "type": "address"
        }
      ],
      "name": "ERC20InvalidApprover",
      "type": "error"
    },
    {
      "inputs": [
        {
          "internalType": "address",
          "name": "receiver",
          "type": "address"
        }
      ],
      "name": "ERC20InvalidReceiver",
      "type": "error"
    },
    {
      "inputs": [
        {
          "internalType": "address",
          "name": "sender",
          "type": "address"
        }
      ],
      "name": "ERC20InvalidSender",
      "type": "error"
    },
    {
      "inputs": [
        {
          "internalType": "address",
          "name": "spender",
          "type": "address"
        }
      ],
      "name": "ERC20InvalidSpender",
      "type": "error"
    },
    {
      "inputs": [
        {
          "internalType": "address",
          "name": "owner",
          "type": "address"
        }
      ],
      "name": "OwnableInvalidOwner",
      "type": "error"
    },
    {
      "inputs": [
        {
          "internalType": "address",
          "name": "account",
          "type": "address"
        }
      ],
      "name": "OwnableUnauthorizedAccount",
      "type": "error"
    },
    {
      "anonymous": false,
      "inputs": [
        {
          "indexed": true,
          "internalType": "address",
          "name": "user",
          "type": "address"
        },
        {
          "indexed": false,
          "internalType": "enum BINToken.AfdianTier",
          "name": "tier",
          "type": "uint8"
        },
        {
          "indexed": false,
          "internalType": "uint256",
          "name": "amount",
          "type": "uint256"
        }
      ],
      "name": "AfdianClaim",
      "type": "event"
    },
    {
      "anonymous": false,
      "inputs": [
        {
          "indexed": true,
          "internalType": "address",
          "name": "owner",
          "type": "address"
        },
        {
          "indexed": true,
          "internalType": "address",
          "name": "spender",
          "type": "address"
        },
        {
          "indexed": false,
          "internalType": "uint256",
          "name": "value",
          "type": "uint256"
        }
      ],
      "name": "Approval",
      "type": "event"
    },
    {
      "anonymous": false,
      "inputs": [
        {
          "indexed": true,
          "internalType": "address",
          "name": "previousOwner",
          "type": "address"
        },
        {
          "indexed": true,
          "internalType": "address",
          "name": "newOwner",
          "type": "address"
        }
      ],
      "name": "OwnershipTransferred",
      "type": "event"
    },
    {
      "anonymous": false,
      "inputs": [
        {
          "indexed": true,
          "internalType": "address",
          "name": "from",
          "type": "address"
        },
        {
          "indexed": true,
          "internalType": "address",
          "name": "to",
          "type": "address"
        },
        {
          "indexed": false,
          "internalType": "uint256",
          "name": "value",
          "type": "uint256"
        }
      ],
      "name": "Transfer",
      "type": "event"
    },
    {
      "anonymous": false,
      "inputs": [
        {
          "indexed": true,
          "internalType": "address",
          "name": "user",
          "type": "address"
        },
        {
          "indexed": false,
          "internalType": "uint256",
          "name": "amount",
          "type": "uint256"
        }
      ],
      "name": "WebsiteClaim",
      "type": "event"
    },
    {
      "inputs": [
        {
          "internalType": "address",
          "name": "owner",
          "type": "address"
        },
        {
          "internalType": "address",
          "name": "spender",
          "type": "address"
        }
      ],
      "name": "allowance",
      "outputs": [
        {
          "internalType": "uint256",
          "name": "",
          "type": "uint256"
        }
      ],
      "stateMutability": "view",
      "type": "function"
    },
    {
      "inputs": [
        {
          "internalType": "address",
          "name": "spender",
          "type": "address"
        },
        {
          "internalType": "uint256",
          "name": "value",
          "type": "uint256"
        }
      ],
      "name": "approve",
      "outputs": [
        {
          "internalType": "bool",
          "name": "",
          "type": "bool"
        }
      ],
      "stateMutability": "nonpayable",
      "type": "function"
    },
    {
      "inputs": [
        {
          "internalType": "address",
          "name": "account",
          "type": "address"
        }
      ],
      "name": "balanceOf",
      "outputs": [
        {
          "internalType": "uint256",
          "name": "",
          "type": "uint256"
        }
      ],
      "stateMutability": "view",
      "type": "function"
    },
    {
      "inputs": [],
      "name": "claimFromWebsite",
      "outputs": [],
      "stateMutability": "nonpayable",
      "type": "function"
    },
    {
      "inputs": [
        {
          "internalType": "address",
          "name": "",
          "type": "address"
        }
      ],
      "name": "claimedWebsite",
      "outputs": [
        {
          "internalType": "bool",
          "name": "",
          "type": "bool"
        }
      ],
      "stateMutability": "view",
      "type": "function"
    },
    {
      "inputs": [],
      "name": "decimals",
      "outputs": [
        {
          "internalType": "uint8",
          "name": "",
          "type": "uint8"
        }
      ],
      "stateMutability": "pure",
      "type": "function"
    },
    {
      "inputs": [
        {
          "internalType": "address",
          "name": "to",
          "type": "address"
        },
        {
          "internalType": "enum BINToken.AfdianTier",
          "name": "tier",
          "type": "uint8"
        }
      ],
      "name": "grantAfdianTier",
      "outputs": [],
      "stateMutability": "nonpayable",
      "type": "function"
    },
    {
      "inputs": [
        {
          "internalType": "address",
          "name": "to",
          "type": "address"
        },
        {
          "internalType": "uint256",
          "name": "amount",
          "type": "uint256"
        }
      ],
      "name": "mint",
      "outputs": [],
      "stateMutability": "nonpayable",
      "type": "function"
    },
    {
      "inputs": [],
      "name": "name",
      "outputs": [
        {
          "internalType": "string",
          "name": "",
          "type": "string"
        }
      ],
      "stateMutability": "view",
      "type": "function"
    },
    {
      "inputs": [],
      "name": "owner",
      "outputs": [
        {
          "internalType": "address",
          "name": "",
          "type": "address"
        }
      ],
      "stateMutability": "view",
      "type": "function"
    },
    {
      "inputs": [],
      "name": "renounceOwnership",
      "outputs": [],
      "stateMutability": "nonpayable",
      "type": "function"
    },
    {
      "inputs": [],
      "name": "symbol",
      "outputs": [
        {
          "internalType": "string",
          "name": "",
          "type": "string"
        }
      ],
      "stateMutability": "view",
      "type": "function"
    },
    {
      "inputs": [],
      "name": "totalSupply",
      "outputs": [
        {
          "internalType": "uint256",
          "name": "",
          "type": "uint256"
        }
      ],
      "stateMutability": "view",
      "type": "function"
    },
    {
      "inputs": [
        {
          "internalType": "address",
          "name": "to",
          "type": "address"
        },
        {
          "internalType": "uint256",
          "name": "value",
          "type": "uint256"
        }
      ],
      "name": "transfer",
      "outputs": [
        {
          "internalType": "bool",
          "name": "",
          "type": "bool"
        }
      ],
      "stateMutability": "nonpayable",
      "type": "function"
    },
    {
      "inputs": [
        {
          "internalType": "address",
          "name": "from",
          "type": "address"
        },
        {
          "internalType": "address",
          "name": "to",
          "type": "address"
        },
        {
          "internalType": "uint256",
          "name": "value",
          "type": "uint256"
        }
      ],
      "name": "transferFrom",
      "outputs": [
        {
          "internalType": "bool",
          "name": "",
          "type": "bool"
        }
      ],
      "stateMutability": "nonpayable",
      "type": "function"
    },
    {
      "inputs": [
        {
          "internalType": "address",
          "name": "newOwner",
          "type": "address"
        }
      ],
      "name": "transferOwnership",
      "outputs": [],
      "stateMutability": "nonpayable",
      "type": "function"
    }
  ],
  "bytecode": "0x608060405234801561001057600080fd5b50336040518060400160405280600981526020017f42696e20546f6b656e00000000000000000000000000000000000000000000008152506040518060400160405280600381526020017f42494e0000000000000000000000000000000000000000000000000000000000815250816003908161008d919061072a565b50806004908161009d919061072a565b505050600073ffffffffffffffffffffffffffffffffffffffff168173ffffffffffffffffffffffffffffffffffffffff16036101125760006040517f1e4fbdf7000000000000000000000000000000000000000000000000000000008152600401610109919061083d565b60405180910390fd5b6101218161015e60201b60201c565b506101593361013461022460201b60201c565b600a61014091906109c7565b6298968061014e9190610a12565b61022d60201b60201c565b610ae9565b6000600560009054906101000a900473ffffffffffffffffffffffffffffffffffffffff16905081600560006101000a81548173ffffffffffffffffffffffffffffffffffffffff021916908373ffffffffffffffffffffffffffffffffffffffff1602179055508173ffffffffffffffffffffffffffffffffffffffff168173ffffffffffffffffffffffffffffffffffffffff167f8be0079c531659141344cd1fd0a4f28419497f9722a3daafe3b4186f6b6457e060405160405180910390a35050565b60006002905090565b600073ffffffffffffffffffffffffffffffffffffffff168273ffffffffffffffffffffffffffffffffffffffff160361029f5760006040517fec442f05000000000000000000000000000000000000000000000000000000008152600401610296919061083d565b60405180910390fd5b6102b1600083836102b560201b60201c565b5050565b600073ffffffffffffffffffffffffffffffffffffffff168373ffffffffffffffffffffffffffffffffffffffff16036103075780600260008282546102fb9190610a54565b925050819055506103da565b60008060008573ffffffffffffffffffffffffffffffffffffffff1673ffffffffffffffffffffffffffffffffffffffff16815260200190815260200160002054905081811015610393578381836040517fe450d38c00000000000000000000000000000000000000000000000000000000815260040161038a93929190610a97565b60405180910390fd5b8181036000808673ffffffffffffffffffffffffffffffffffffffff1673ffffffffffffffffffffffffffffffffffffffff16815260200190815260200160002081905550505b600073ffffffffffffffffffffffffffffffffffffffff168273ffffffffffffffffffffffffffffffffffffffff16036104235780600260008282540392505081905550610470565b806000808473ffffffffffffffffffffffffffffffffffffffff1673ffffffffffffffffffffffffffffffffffffffff168152602001908152602001600020600082825401925050819055505b8173ffffffffffffffffffffffffffffffffffffffff168373ffffffffffffffffffffffffffffffffffffffff167fddf252ad1be2c89b69c2b068fc378daa952ba7f163c4a11628f55a4df523b3ef836040516104cd9190610ace565b60405180910390a3505050565b600081519050919050565b7f4e487b7100000000000000000000000000000000000000000000000000000000600052604160045260246000fd5b7f4e487b7100000000000000000000000000000000000000000000000000000000600052602260045260246000fd5b6000600282049050600182168061055b57607f821691505b60208210810361056e5761056d610514565b5b50919050565b60008190508160005260206000209050919050565b60006020601f8301049050919050565b600082821b905092915050565b6000600883026105d67fffffffffffffffffffffffffffffffffffffffffffffffffffffffffffffffff82610599565b6105e08683610599565b95508019841693508086168417925050509392505050565b6000819050919050565b6000819050919050565b600061062761062261061d846105f8565b610602565b6105f8565b9050919050565b6000819050919050565b6106418361060c565b61065561064d8261062e565b8484546105a6565b825550505050565b600090565b61066a61065d565b610675818484610638565b505050565b5b818110156106995761068e600082610662565b60018101905061067b565b5050565b601f8211156106de576106af81610574565b6106b884610589565b810160208510156106c7578190505b6106db6106d385610589565b83018261067a565b50505b505050565b600082821c905092915050565b6000610701600019846008026106e3565b1980831691505092915050565b600061071a83836106f0565b9150826002028217905092915050565b610733826104da565b67ffffffffffffffff81111561074c5761074b6104e5565b5b6107568254610543565b61076182828561069d565b600060209050601f8311600181146107945760008415610782578287015190505b61078c858261070e565b8655506107f4565b601f1984166107a286610574565b60005b828110156107ca578489015182556001820191506020850194506020810190506107a5565b868310156107e757848901516107e3601f8916826106f0565b8355505b6001600288020188555050505b505050505050565b600073ffffffffffffffffffffffffffffffffffffffff82169050919050565b6000610827826107fc565b9050919050565b6108378161081c565b82525050565b6000602082019050610852600083018461082e565b92915050565b7f4e487b7100000000000000000000000000000000000000000000000000000000600052601160045260246000fd5b60008160011c9050919050565b6000808291508390505b60018511156108de578086048111156108ba576108b9610858565b5b60018516156108c95780820291505b80810290506108d785610887565b945061089e565b94509492505050565b6000826108f757600190506109b3565b8161090557600090506109b3565b816001811461091b576002811461092557610954565b60019150506109b3565b60ff84111561093757610936610858565b5b8360020a91508482111561094e5761094d610858565b5b506109b3565b5060208310610133831016604e8410600b84101617156109895782820a90508381111561098457610983610858565b5b6109b3565b6109968484846001610894565b925090508184048111156109ad576109ac610858565b5b81810290505b9392505050565b600060ff82169050919050565b60006109d2826105f8565b91506109dd836109ba565b9250610a0a7fffffffffffffffffffffffffffffffffffffffffffffffffffffffffffffffff84846108e7565b905092915050565b6000610a1d826105f8565b9150610a28836105f8565b9250828202610a36816105f8565b91508282048414831517610a4d57610a4c610858565b5b5092915050565b6000610a5f826105f8565b9150610a6a836105f8565b9250828201905080821115610a8257610a81610858565b5b92915050565b610a91816105f8565b82525050565b6000606082019050610aac600083018661082e565b610ab96020830185610a88565b610ac66040830184610a88565b949350505050565b6000602082019050610ae36000830184610a88565b92915050565b61192780610af86000396000f3fe608060405234801561001057600080fd5b50600436106101005760003560e01c80637a7ab20611610097578063d120a1ff11610066578063d120a1ff1461029d578063dc48dfec146102a7578063dd62ed3e146102d7578063f2fde38b1461030757610100565b80637a7ab206146102155780638da5cb5b1461023157806395d89b411461024f578063a9059cbb1461026d57610100565b8063313ce567116100d3578063313ce567146101a157806340c10f19146101bf57806370a08231146101db578063715018a61461020b57610100565b806306fdde0314610105578063095ea7b31461012357806318160ddd1461015357806323b872dd14610171575b600080fd5b61010d610323565b60405161011a91906111de565b60405180910390f35b61013d60048036038101906101389190611299565b6103b5565b60405161014a91906112f4565b60405180910390f35b61015b6103d8565b604051610168919061131e565b60405180910390f35b61018b60048036038101906101869190611339565b6103e2565b60405161019891906112f4565b60405180910390f35b6101a9610411565b6040516101b691906113a8565b60405180910390f35b6101d960048036038101906101d49190611299565b61041a565b005b6101f560048036038101906101f091906113c3565b61044e565b604051610202919061131e565b60405180910390f35b610213610496565b005b61022f600480360381019061022a9190611415565b6104aa565b005b610239610655565b6040516102469190611464565b60405180910390f35b61025761067f565b60405161026491906111de565b60405180910390f35b61028760048036038101906102829190611299565b610711565b60405161029491906112f4565b60405180910390f35b6102a5610734565b005b6102c160048036038101906102bc91906113c3565b6108b3565b6040516102ce91906112f4565b60405180910390f35b6102f160048036038101906102ec919061147f565b6108d3565b6040516102fe919061131e565b60405180910390f35b610321600480360381019061031c91906113c3565b61095a565b005b606060038054610332906114ee565b80601f016020809104026020016040519081016040528092919081815260200182805461035e906114ee565b80156103ab5780601f10610380576101008083540402835291602001916103ab565b820191906000526020600020905b81548152906001019060200180831161038e57829003601f168201915b5050505050905090565b6000806103c06109e0565b90506103cd8185856109e8565b600191505092915050565b6000600254905090565b6000806103ed6109e0565b90506103fa8582856109fa565b610405858585610a8f565b60019150509392505050565b60006002905090565b610422610b83565b61044a8261042e610411565b600a61043a9190611681565b8361044591906116cc565b610c0a565b5050565b60008060008373ffffffffffffffffffffffffffffffffffffffff1673ffffffffffffffffffffffffffffffffffffffff168152602001908152602001600020549050919050565b61049e610b83565b6104a86000610c8c565b565b6104b2610b83565b600060038111156104c6576104c561170e565b5b8160038111156104d9576104d861170e565b5b03610519576040517f08c379a000000000000000000000000000000000000000000000000000000000815260040161051090611789565b60405180910390fd5b60006001600381111561052f5761052e61170e565b5b8260038111156105425761054161170e565b5b03610551576103e890506105ba565b600260038111156105655761056461170e565b5b8260038111156105785761057761170e565b5b03610587576107d090506105b9565b60038081111561059a5761059961170e565b5b8260038111156105ad576105ac61170e565b5b036105b857610bb890505b5b5b6105e2836105c6610411565b600a6105d29190611681565b836105dd91906116cc565b610c0a565b8273ffffffffffffffffffffffffffffffffffffffff167f421c4066b560eb4eac1701123e2b1b17877992c695e65353e15b653c4659393e83610623610411565b600a61062f9190611681565b8461063a91906116cc565b6040516106489291906117f1565b60405180910390a2505050565b6000600560009054906101000a900473ffffffffffffffffffffffffffffffffffffffff16905090565b60606004805461068e906114ee565b80601f01602080910402602001604051908101604052809291908181526020018280546106ba906114ee565b80156107075780601f106106dc57610100808354040283529160200191610707565b820191906000526020600020905b8154815290600101906020018083116106ea57829003601f168201915b5050505050905090565b60008061071c6109e0565b9050610729818585610a8f565b600191505092915050565b600660003373ffffffffffffffffffffffffffffffffffffffff1673ffffffffffffffffffffffffffffffffffffffff16815260200190815260200160002060009054906101000a900460ff16156107c1576040517f08c379a00000000000000000000000000000000000000000000000000000000081526004016107b890611866565b60405180910390fd5b6001600660003373ffffffffffffffffffffffffffffffffffffffff1673ffffffffffffffffffffffffffffffffffffffff16815260200190815260200160002060006101000a81548160ff02191690831515021790555061084333610825610411565b600a6108319190611681565b61012c61083e91906116cc565b610c0a565b3373ffffffffffffffffffffffffffffffffffffffff167f66f892b3f5f2898247544aba8b5f6df5f4edfe4de3f58dfcbf317090c302b503610883610411565b600a61088f9190611681565b61012c61089c91906116cc565b6040516108a9919061131e565b60405180910390a2565b60066020528060005260406000206000915054906101000a900460ff1681565b6000600160008473ffffffffffffffffffffffffffffffffffffffff1673ffffffffffffffffffffffffffffffffffffffff16815260200190815260200160002060008373ffffffffffffffffffffffffffffffffffffffff1673ffffffffffffffffffffffffffffffffffffffff16815260200190815260200160002054905092915050565b610962610b83565b600073ffffffffffffffffffffffffffffffffffffffff168173ffffffffffffffffffffffffffffffffffffffff16036109d45760006040517f1e4fbdf70000000000000000000000000000000000000000000000000000000081526004016109cb9190611464565b60405180910390fd5b6109dd81610c8c565b50565b600033905090565b6109f58383836001610d52565b505050565b6000610a0684846108d3565b90507fffffffffffffffffffffffffffffffffffffffffffffffffffffffffffffffff811015610a895781811015610a79578281836040517ffb8f41b2000000000000000000000000000000000000000000000000000000008152600401610a7093929190611886565b60405180910390fd5b610a8884848484036000610d52565b5b50505050565b600073ffffffffffffffffffffffffffffffffffffffff168373ffffffffffffffffffffffffffffffffffffffff1603610b015760006040517f96c6fd1e000000000000000000000000000000000000000000000000000000008152600401610af89190611464565b60405180910390fd5b600073ffffffffffffffffffffffffffffffffffffffff168273ffffffffffffffffffffffffffffffffffffffff1603610b735760006040517fec442f05000000000000000000000000000000000000000000000000000000008152600401610b6a9190611464565b60405180910390fd5b610b7e838383610f29565b505050565b610b8b6109e0565b73ffffffffffffffffffffffffffffffffffffffff16610ba9610655565b73ffffffffffffffffffffffffffffffffffffffff1614610c0857610bcc6109e0565b6040517f118cdaa7000000000000000000000000000000000000000000000000000000008152600401610bff9190611464565b60405180910390fd5b565b600073ffffffffffffffffffffffffffffffffffffffff168273ffffffffffffffffffffffffffffffffffffffff1603610c7c5760006040517fec442f05000000000000000000000000000000000000000000000000000000008152600401610c739190611464565b60405180910390fd5b610c8860008383610f29565b5050565b6000600560009054906101000a900473ffffffffffffffffffffffffffffffffffffffff16905081600560006101000a81548173ffffffffffffffffffffffffffffffffffffffff021916908373ffffffffffffffffffffffffffffffffffffffff1602179055508173ffffffffffffffffffffffffffffffffffffffff168173ffffffffffffffffffffffffffffffffffffffff167f8be0079c531659141344cd1fd0a4f28419497f9722a3daafe3b4186f6b6457e060405160405180910390a35050565b600073ffffffffffffffffffffffffffffffffffffffff168473ffffffffffffffffffffffffffffffffffffffff1603610dc45760006040517fe602df05000000000000000000000000000000000000000000000000000000008152600401610dbb9190611464565b60405180910390fd5b600073ffffffffffffffffffffffffffffffffffffffff168373ffffffffffffffffffffffffffffffffffffffff1603610e365760006040517f94280d62000000000000000000000000000000000000000000000000000000008152600401610e2d9190611464565b60405180910390fd5b81600160008673ffffffffffffffffffffffffffffffffffffffff1673ffffffffffffffffffffffffffffffffffffffff16815260200190815260200160002060008573ffffffffffffffffffffffffffffffffffffffff1673ffffffffffffffffffffffffffffffffffffffff168152602001908152602001600020819055508015610f23578273ffffffffffffffffffffffffffffffffffffffff168473ffffffffffffffffffffffffffffffffffffffff167f8c5be1e5ebec7d5bd14f71427d1e84f3dd0314c0f7b2291e5b200ac8c7c3b92584604051610f1a919061131e565b60405180910390a35b50505050565b600073ffffffffffffffffffffffffffffffffffffffff168373ffffffffffffffffffffffffffffffffffffffff1603610f7b578060026000828254610f6f91906118bd565b9250508190555061104e565b60008060008573ffffffffffffffffffffffffffffffffffffffff1673ffffffffffffffffffffffffffffffffffffffff16815260200190815260200160002054905081811015611007578381836040517fe450d38c000000000000000000000000000000000000000000000000000000008152600401610ffe93929190611886565b60405180910390fd5b8181036000808673ffffffffffffffffffffffffffffffffffffffff1673ffffffffffffffffffffffffffffffffffffffff16815260200190815260200160002081905550505b600073ffffffffffffffffffffffffffffffffffffffff168273ffffffffffffffffffffffffffffffffffffffff160361109757806002600082825403925050819055506110e4565b806000808473ffffffffffffffffffffffffffffffffffffffff1673ffffffffffffffffffffffffffffffffffffffff168152602001908152602001600020600082825401925050819055505b8173ffffffffffffffffffffffffffffffffffffffff168373ffffffffffffffffffffffffffffffffffffffff167fddf252ad1be2c89b69c2b068fc378daa952ba7f163c4a11628f55a4df523b3ef83604051611141919061131e565b60405180910390a3505050565b600081519050919050565b600082825260208201905092915050565b60005b8381101561118857808201518184015260208101905061116d565b60008484015250505050565b6000601f19601f8301169050919050565b60006111b08261114e565b6111ba8185611159565b93506111ca81856020860161116a565b6111d381611194565b840191505092915050565b600060208201905081810360008301526111f881846111a5565b905092915050565b600080fd5b600073ffffffffffffffffffffffffffffffffffffffff82169050919050565b600061123082611205565b9050919050565b61124081611225565b811461124b57600080fd5b50565b60008135905061125d81611237565b92915050565b6000819050919050565b61127681611263565b811461128157600080fd5b50565b6000813590506112938161126d565b92915050565b600080604083850312156112b0576112af611200565b5b60006112be8582860161124e565b92505060206112cf85828601611284565b9150509250929050565b60008115159050919050565b6112ee816112d9565b82525050565b600060208201905061130960008301846112e5565b92915050565b61131881611263565b82525050565b6000602082019050611333600083018461130f565b92915050565b60008060006060848603121561135257611351611200565b5b60006113608682870161124e565b93505060206113718682870161124e565b925050604061138286828701611284565b9150509250925092565b600060ff82169050919050565b6113a28161138c565b82525050565b60006020820190506113bd6000830184611399565b92915050565b6000602082840312156113d9576113d8611200565b5b60006113e78482850161124e565b91505092915050565b600481106113fd57600080fd5b50565b60008135905061140f816113f0565b92915050565b6000806040838503121561142c5761142b611200565b5b600061143a8582860161124e565b925050602061144b85828601611400565b9150509250929050565b61145e81611225565b82525050565b60006020820190506114796000830184611455565b92915050565b6000806040838503121561149657611495611200565b5b60006114a48582860161124e565b92505060206114b58582860161124e565b9150509250929050565b7f4e487b7100000000000000000000000000000000000000000000000000000000600052602260045260246000fd5b6000600282049050600182168061150657607f821691505b602082108103611519576115186114bf565b5b50919050565b7f4e487b7100000000000000000000000000000000000000000000000000000000600052601160045260246000fd5b60008160011c9050919050565b6000808291508390505b60018511156115a5578086048111156115815761158061151f565b5b60018516156115905780820291505b808102905061159e8561154e565b9450611565565b94509492505050565b6000826115be576001905061167a565b816115cc576000905061167a565b81600181146115e257600281146115ec5761161b565b600191505061167a565b60ff8411156115fe576115fd61151f565b5b8360020a9150848211156116155761161461151f565b5b5061167a565b5060208310610133831016604e8410600b84101617156116505782820a90508381111561164b5761164a61151f565b5b61167a565b61165d848484600161155b565b925090508184048111156116745761167361151f565b5b81810290505b9392505050565b600061168c82611263565b91506116978361138c565b92506116c47fffffffffffffffffffffffffffffffffffffffffffffffffffffffffffffffff84846115ae565b905092915050565b60006116d782611263565b91506116e283611263565b92508282026116f081611263565b915082820484148315176117075761170661151f565b5b5092915050565b7f4e487b7100000000000000000000000000000000000000000000000000000000600052602160045260246000fd5b7f496e76616c696420746965720000000000000000000000000000000000000000600082015250565b6000611773600c83611159565b915061177e8261173d565b602082019050919050565b600060208201905081810360008301526117a281611766565b9050919050565b600481106117ba576117b961170e565b5b50565b60008190506117cb826117a9565b919050565b60006117db826117bd565b9050919050565b6117eb816117d0565b82525050565b600060408201905061180660008301856117e2565b611813602083018461130f565b9392505050565b7f416c726561647920636c61696d65642066726f6d207765627369746500000000600082015250565b6000611850601c83611159565b915061185b8261181a565b602082019050919050565b6000602082019050818103600083015261187f81611843565b9050919050565b600060608201905061189b6000830186611455565b6118a8602083018561130f565b6118b5604083018461130f565b949350505050565b60006118c882611263565b91506118d383611263565b92508282019050808211156118eb576118ea61151f565b5b9291505056fea26469706673582212209f1541a81031e7dafb25cebdc3c1583fbf092f46425661ba6935a111f064c53964736f6c634300081c0033",
  "linkReferences": {},
  "deployedLinkReferences": {}
}